:100000000C9435000C945D000C945D000C945D0024
:100010000C945D000C945D000C945D000C945D00EC
:100020000C945D000C945D000C945D000C945D00DC
:100030000C945D000C945D000C945D000C945D00CC
:100040000C94D0010C945D000C9440020C941A02A4
:100050000C945D000C945D000C945D000C945D00AC
:100060000C9472020C945D00A00311241FBECFEF0C
:10007000D8E0DEBFCDBF11E0A0E0B1E0E8E5F8E0F8
:1000800002C005900D92A432B107D9F722E0A4E294
:10009000B1E001C01D92A534B207E1F710E0C5E35D
:1000A000D0E004C02197FE010E941F04C433D10791
:1000B000C9F70E94D9030C942A040C940000FC0197
:1000C000538D448D252F30E0842F90E0821B930BBD
:1000D000541710F0CF96089501970895FC01918D63
:1000E000828D981761F0828DDF01A80FB11D5D969A
:1000F0008C91928D9F5F9F73928F90E008958FEF08
:100100009FEF0895FC01918D828D981731F0828DBB
:10011000E80FF11D858D90E008958FEF9FEF089512
:10012000FC01918D228D892F90E0805C9F4F821B76
:1001300091098F7399270895FC01848DDF01A80F21
:10014000B11DA35ABF4F2C91848D90E001968F73FF
:100150009927848FA689B7892C93A089B1898C911E
:1001600080648C93938D848D981306C00288F389E4
:10017000E02D80818F7D80830895EF92FF920F9311
:100180001F93CF93DF93EC0181E0888F9B8D8C8D43
:10019000981305C0E889F989808185FD24C0F62E71
:1001A0000B8D10E00F5F1F4F0F731127E02E8C8D0A
:1001B000E8120CC00FB607FCFACFE889F9898081F4
:1001C00085FFF5CFCE010E949C00F1CF8B8DFE0103
:1001D000E80FF11DE35AFF4FF0820B8FEA89FB898C
:1001E0008081806207C0EE89FF896083E889F98990
:1001F00080818064808381E090E0DF91CF911F91C6
:100200000F91FF90EF900895CF93DF93EC01888DCD
:100210008823C9F0EA89FB89808185FD05C0A8890A
:10022000B9898C9186FD0FC00FB607FCF5CF808190
:1002300085FFF2CFA889B9898C9185FFEDCFCE01DA
:100240000E949C00E7CFDF91CF9108958CE991E067
:100250000E94900021E0892B09F420E0822F08956C
:1002600080E090E0892B29F00E94260181110C94F6
:1002700000000895CF92DF92EF92FF920F931F93A9
:10028000CF93DF936C017A018B01C0E0D0E0CE15F3
:10029000DF0589F0D8016D918D01D601ED91FC91BA
:1002A0000190F081E02DC6010995892B11F47E01A2
:1002B00002C02196ECCFC701DF91CF911F910F9122
:1002C000FF90EF90DF90CF90089585ED8093BC0074
:1002D0008091BC0084FDFCCF10926D010895409187
:1002E0004701262F30E0240F311D21323105DCF487
:1002F00020916D012430C9F4FC0180E090E0861764
:1003000058F4309147012191DC01AB5DBE4FA30F42
:10031000B11D2C930196F3CF80914701680F609334
:10032000470180E0089581E0089582E008950895EE
:100330008FEF9FEF08958FEF9FEF08958091240135
:1003400090E09195819591090895CF93DF9300D026
:10035000CDB7DEB7CB01642F49835A830E946F016A
:100360004981842F5A81952F0F900F90DF91CF9163
:100370000895CF93DF931F92CDB7DEB7698361E015
:10038000CE0101960E946F0181E090E00F90DF9115
:10039000CF910895089580E090E008950E9425048B
:1003A0001F920F920FB60F9211242F933F938F93AA
:1003B0009F93AF93BF938091980190919901A091E1
:1003C0009A01B0919B013091970123E0230F2D37C3
:1003D00020F40196A11DB11D05C026E8230F029649
:1003E000A11DB11D209397018093980190939901CD
:1003F000A0939A01B0939B018091930190919401F5
:10040000A0919501B09196010196A11DB11D809317
:10041000930190939401A0939501B0939601BF919D
:10042000AF919F918F913F912F910F900FBE0F90A1
:100430001F9018951F920F920FB60F9211242F93B1
:100440003F934F935F936F937F938F939F93AF935C
:10045000BF93EF93FF938CE991E00E949C00FF9182
:10046000EF91BF91AF919F918F917F916F915F912C
:100470004F913F912F910F900FBE0F901F901895A5
:100480001F920F920FB60F9211242F938F939F9369
:10049000EF93FF93E091AC01F091AD018081E09189
:1004A000B201F091B30182FD12C090818091B5013B
:1004B0008F5F8F732091B601821751F0E091B501E3
:1004C000F0E0E456FE4F958F8093B50101C0808126
:1004D000FF91EF919F918F912F910F900FBE0F90F1
:1004E0001F9018951F920F920FB60F9211242F9301
:1004F0003F934F935F936F937F938F939F93AF93AC
:10050000BF93EF93FF938091B900887F803609F401
:100510009CC068F5883209F45BC090F4803109F41E
:1005200054C038F4882309F4F6C0883009F44DC06B
:10053000F6C0883109F44CC0803209F45DC0EFC0C8
:10054000803409F468C048F4803309F455C0883316
:1005500009F0E5C080936C01D8C0803509F44FC024
:10056000883509F45DC0883409F0D9C0D6C088390F
:1005700009F4C7C0A8F4883709F467C038F488368E
:1005800009F463C0803709F460C0C9C0883809F431
:10059000B8C0803909F45FC0803809F0C0C05BC0C2
:1005A000803B09F486C038F4803A09F466C0883A82
:1005B00009F47FC0B4C0803C09F4A7C0883C09F4AA
:1005C000A4C0883B09F48AC0AAC08091920110C0DF
:1005D0009091910180919001981770F5E0919101AF
:1005E00081E08E0F80939101F0E0E059FE4F808111
:1005F0008093BB0085EC86C080936C018EC0E09137
:10060000910181E08E0F809391018091BB00F0E019
:10061000E059FE4F808390919101809190016EC0CE
:10062000E091910181E08E0F809391018091BB0058
:10063000F0E0E059FE4F808380916F0181116DC021
:1006400081E080936E0184EA61C083E080936D0154
:1006500010926B01CFCF80916B01803208F051C0B6
:10066000E0916B0181E08E0F80936B018091BB0064
:10067000F0E0E55BFE4F8083BDCF85EC8093BC004E
:1006800010926D0180916B01803230F4E0916B012A
:10069000F0E0E55BFE4F108260916B0170E0E0914D
:1006A0004901F0914A018BE491E0099510926B01A8
:1006B00036C084E080936D0110924801109247018A
:1006C000E0914501F0914601099580914701811122
:1006D00005C081E08093470110922501E091480117
:1006E00081E08E0F80934801F0E0EB5DFE4F80814A
:1006F0008093BB009091480180914701981708F4BE
:1007000079CF85E88093BC000AC085EC8093BC005B
:1007100010926D0104C010926C010E946501FF915E
:10072000EF91BF91AF919F918F917F916F915F9169
:100730004F913F912F910F900FBE0F901F901895E2
:10074000ECE9F1E01382128288EE93E0A0E0B0E0E1
:1007500084839583A683B78324E031E031832083AB
:1007600025EC30E03587248724EC30E03787268776
:1007700020EC30E0318B208B21EC30E0338B228B6E
:1007800022EC30E0358B248B26EC30E0378B268B47
:10079000118E128E138E148EE9E3F2E01382128210
:1007A00084839583A683B78386E191E091838083D8
:1007B0000895789484B5826084BD84B5816084BDD9
:1007C00085B5826085BD85B5816085BD80916E00EF
:1007D000816080936E001092810080918100826020
:1007E000809381008091810081608093810080915D
:1007F00080008160809380008091B100846080934C
:10080000B1008091B00081608093B00080917A0047
:10081000846080937A0080917A00826080937A006D
:1008200080917A00816080937A0080917A0080685C
:1008300080937A001092C1000E943001FDCFEE0F2C
:10084000FF1F0590F491E02D099481E090E0F89469
:080850000C942A04F894FFCF78
:1008580000000000BD003A015F00040190006E0036
:10086800820000000000B901A501CB0197019E019B
:040878009B01980147
:107E0000112484B714BE81FFF0D085E080938100F7
:107E100082E08093C00088E18093C10086E0809377
:107E2000C20080E18093C4008EE0C9D0259A86E02C
:107E300020E33CEF91E0309385002093840096BBD3
:107E4000B09BFECF1D9AA8958150A9F7CC24DD24C4
:107E500088248394B5E0AB2EA1E19A2EF3E0BF2EE7
:107E6000A2D0813461F49FD0082FAFD0023811F036
:107E7000013811F484E001C083E08DD089C08234E0
:107E800011F484E103C0853419F485E0A6D080C0E4
:107E9000853579F488D0E82EFF2485D0082F10E0AE
:107EA000102F00270E291F29000F111F8ED06801E7
:107EB0006FC0863521F484E090D080E0DECF843638
:107EC00009F040C070D06FD0082F6DD080E0C81688
:107ED00080E7D80618F4F601B7BEE895C0E0D1E017
:107EE00062D089930C17E1F7F0E0CF16F0E7DF06D8
:107EF00018F0F601B7BEE89568D007B600FCFDCFD4
:107F0000A601A0E0B1E02C9130E011968C91119780
:107F100090E0982F8827822B932B1296FA010C0160
:107F200087BEE89511244E5F5F4FF1E0A038BF0790
:107F300051F7F601A7BEE89507B600FCFDCF97BE46
:107F4000E89526C08437B1F42ED02DD0F82E2BD052
:107F50003CD0F601EF2C8F010F5F1F4F84911BD097
:107F6000EA94F801C1F70894C11CD11CFA94CF0C13
:107F7000D11C0EC0853739F428D08EE10CD085E9AC
:107F80000AD08FE07ACF813511F488E018D01DD067
:107F900080E101D065CF982F8091C00085FFFCCF94
:107FA0009093C60008958091C00087FFFCCF809118
:107FB000C00084FD01C0A8958091C6000895E0E648
:107FC000F0E098E1908380830895EDDF803219F02E
:107FD00088E0F5DFFFCF84E1DECF1F93182FE3DFCA
:107FE0001150E9F7F2DF1F91089580E0E8DFEE27F6
:047FF000FF270994CA
:027FFE00040479
:0400000300007E007B
:00000001FF
