:1000000002001E00000080FB75825A758300740098
:1000100012002A758203758300740012002A75D0BD
:10002000007581BF759F00020008C09FF59FE473B3
:10003000D09F22D083D082C09FE493C0E07401930C
:10004000C0E0740293F59F221200339B000012005F
:1000500033C20000120033DA000043FE0443FE08FE
:10006000C292C29312004E1200547E41C292D293A9
:100070007AD07B07120048E586A2E040EFD292C218
:10008000937AD07B071200488EC1E586A2E150FA30
:10009000A2E950FC5386FDC2E980D1EAF8EBF98071
:1000A00014EA24FFFAEB34FFFBEA4B70F4E824FF78
:1000B000F8E934FFF9E84960067A4B7B0280EA02EE
:1000C000003043BE8053C6BF7489659E70FA53C624
:1000D000B87488659E70FA02003043F10143F43031
:1000E00043F54843868043C50B43C2D8C2E9439ACF
:0700F0000443A88402003064
:00001E01E1
:00000001FF
